{
  "contractName": "HelloWorld",
  "abi": [
    {
      "inputs": [],
      "name": "counter",
      "outputs": [
        {
          "internalType": "uint256",
          "name": "",
          "type": "uint256"
        }
      ],
      "stateMutability": "view",
      "type": "function",
      "constant": true
    },
    {
      "inputs": [],
      "name": "sayHello",
      "outputs": [
        {
          "internalType": "string",
          "name": "",
          "type": "string"
        }
      ],
      "stateMutability": "nonpayable",
      "type": "function"
    }
  ],
  "bytecode": "0x60806040526000805534801561001457600080fd5b50610517806100246000396000f3fe608060405234801561001057600080fd5b50600436106100365760003560e01c806361bc221a1461003b578063ef5fb05b14610059575b600080fd5b610043610077565b604051610050919061021b565b60405180910390f35b61006161007d565b60405161006e91906102cf565b60405180910390f35b60005481565b606061009d60008081548092919061009490610320565b919050556100a2565b905090565b6060600082036100e9576040518060400160405280600181526020017f300000000000000000000000000000000000000000000000000000000000000081525090506101fd565b600082905060005b6000821461011b57808061010490610320565b915050600a826101149190610397565b91506100f1565b60008167ffffffffffffffff811115610137576101366103c8565b5b6040519080825280601f01601f1916602001820160405280156101695781602001600182028036833780820191505090505b5090505b600085146101f65760018261018291906103f7565b9150600a85610191919061042b565b603061019d919061045c565b60f81b8183815181106101b3576101b26104b2565b5b60200101907effffffffffffffffffffffffffffffffffffffffffffffffffffffffffffff1916908160001a905350600a856101ef9190610397565b945061016d565b8093505050505b919050565b6000819050919050565b61021581610202565b82525050565b6000602082019050610230600083018461020c565b92915050565b600081519050919050565b600082825260208201905092915050565b60005b83811015610270578082015181840152602081019050610255565b8381111561027f576000848401525b50505050565b6000601f19601f8301169050919050565b60006102a182610236565b6102ab8185610241565b93506102bb818560208601610252565b6102c481610285565b840191505092915050565b600060208201905081810360008301526102e98184610296565b905092915050565b7f4e487b7100000000000000000000000000000000000000000000000000000000600052601160045260246000fd5b600061032b82610202565b91507fffffffffffffffffffffffffffffffffffffffffffffffffffffffffffffffff820361035d5761035c6102f1565b5b600182019050919050565b7f4e487b7100000000000000000000000000000000000000000000000000000000600052601260045260246000fd5b60006103a282610202565b91506103ad83610202565b9250826103bd576103bc610368565b5b828204905092915050565b7f4e487b7100000000000000000000000000000000000000000000000000000000600052604160045260246000fd5b600061040282610202565b915061040d83610202565b9250828210156104205761041f6102f1565b5b828203905092915050565b600061043682610202565b915061044183610202565b92508261045157610450610368565b5b828206905092915050565b600061046782610202565b915061047283610202565b9250827fffffffffffffffffffffffffffffffffffffffffffffffffffffffffffffffff038211156104a7576104a66102f1565b5b828201905092915050565b7f4e487b7100000000000000000000000000000000000000000000000000000000600052603260045260246000fdfea26469706673582212206bd8a0e8c79058405d5eb4789d8e88689eb9cd742cbbecad4cd2c0e5d10acb0064736f6c634300080e0033",
  "immutableReferences": {},
  "source": "// SPDX-License-Identifier: MIT\npragma solidity ^0.8.0;\n\nimport \"@openzeppelin/contracts/utils/Strings.sol\";\n\ncontract HelloWorld {\n  uint256 public counter = 0;\n  function sayHello() public returns (string memory) {\n        return (Strings.toString(counter++));\n    }\n}\n",
  "sourcePath": "D:\\Github\\Solidity\\contracts\\HelloWorld.sol",
  "compiler": {
    "name": "solc",
    "version": "0.8.14+commit.80d49f37.Emscripten.clang"
  },
  "schemaVersion": "3.4.7",
  "updatedAt": "2022-05-23T03:18:19.690Z",
  "networkType": "ethereum",
  "devdoc": {
    "kind": "dev",
    "methods": {},
    "version": 1
  },
  "userdoc": {
    "kind": "user",
    "methods": {},
    "version": 1
  }
}